:100000000C9462000C948A000C948A000C948A0070
:100010000C948A000C948A000C948A000C948A0038
:100020000C948A000C948A000C948A000C948A0028
:100030000C948A000C948A000C948A000C948A0018
:100040000C9466050C948A000C948A000C948A0027
:100050000C948A000C948A000C948A000C948A00F8
:100060000C948A000C948A000000000024002700F1
:100070002A0000000000250028002B0000000000DE
:1000800023002600290004040404040404040202DA
:100090000202020203030303030301020408102007
:1000A0004080010204081020010204081020000012
:1000B0000007000201000003040600000000000029
:1000C00000008C0311241FBECFEFD8E0DEBFCDBFF0
:1000D00011E0A0E0B1E0EEECF1E202C005900D927B
:1000E000A03CB107D9F712E0A0ECB1E001C01D922D
:1000F000A733B107E1F710E0C4ECD0E004C02297C9
:10010000FE010E94AE0FC23CD107C9F70E94D7067C
:100110000C94E5100C940000EF92FF920F931F9344
:10012000CF93DF93C0ECD1E0CE0160E142E020E06C
:100130000E94DA0880E0E82E81E0F82ECE01B701B7
:100140000E94240760ED77E080E090E00E94E205E5
:10015000CE0160E040E00E94A40801E111E0CE0180
:10016000B8010E942407CE0160E040E00E94A4088C
:10017000CE0162E271E00E942407CE0160E041E01E
:100180000E94A408CE0163E371E00E94240760EDA1
:1001900077E080E090E00E94E205CE0160E040E080
:1001A0000E94A408CE01B8010E942407CE0160E09D
:1001B00041E00E94A408CE01B8010E942407CE01AC
:1001C00060E040E00E94A408CE0164E471E00E9477
:1001D000240760ED77E080E090E00E94E205CE0128
:1001E00060E040E00E94A408CE01B8010E9424070C
:1001F000CE0160E041E00E94A408CE01B8010E9457
:100200002407CE0160E040E00E94A408CE01B701BF
:100210000E94240782E061E00E947B068CE061E09E
:100220000E947B068DE061E00E947B06CDEED1E06E
:10023000CE0161E070E00E94BE0CCE0140E050E0D3
:100240006FE773EC00E010E02FE733E40E94FC0B53
:10025000DF91CF911F910F91FF90EF900895EF9252
:10026000FF920F931F9380E00E94E5049C01B90167
:10027000882777FD8095982F0E94730EF62E072F02
:10028000182FE92E85ED91E00E94B4046093E201FD
:100290007093E3018093E4019093E5016F2D702F3B
:1002A000812F9E2D20E030E047E053E40E94230F91
:1002B0001816C4F56F2D702F812F9E2D20E030E091
:1002C0004BE153E40E94D40D87FF2CC01092EB0148
:1002D00010922602109227021092280210922902F0
:1002E00080EC91E060E041E00E94A40880EC91E0A5
:1002F00061E171E00E9424076091AB017091AC0153
:100300008091AD019091AE0120E030E040E85FE3E4
:100310000E94700D6093AB017093AC018093AD01AE
:100320009093AE016F2D702F812F9E2D20E030E82D
:100330004FE953E40E94230F1816C4F56F2D702F58
:10034000812F9E2D20E030E849EA53E40E94D40D2D
:1003500087FF2CC01092EB01109226021092270208
:10036000109228021092290280EC91E060E041E0B6
:100370000E94A40880EC91E061E171E00E942407F2
:100380006091AB017091AC018091AD019091AE0193
:1003900020E030E040E85FE30E946F0D6093AB0126
:1003A0007093AC018093AD019093AE016F2D702FCF
:1003B000812F9E2D20E030EC46E354E40E94230F71
:1003C00018160CF055C06F2D702F812F9E2D20E038
:1003D00030EC4BE354E40E94D40D87FF49C011E098
:1003E0001093EB011092260210922702109228021D
:1003F0001092290280EC91E060E041E00E94A408A4
:1004000080EC91E061E171E00E9424078091EA01B3
:100410008230B9F08330F0F4813071F083E0809362
:10042000EA0182E061E00E949F068CE061E00E94A8
:100430009F068DE061E01AC01092EA0182E060E060
:1004400004C01093EA0182E061E00E949F068CE004
:1004500060E008C082E08093EA0161E00E949F06AC
:100460008CE061E00E949F068DE060E00E949F06A4
:100470008DEE91E00E94C309E090E601F090E70163
:100480000091E8011091E901C801B70120E030E0D6
:10049000A9010E94230F181664F482E08093EC01F6
:1004A000C801B7010E94450E80EE91E00E941F0432
:1004B0001CC0C801B70120E030E0A9010E94D40DA2
:1004C00087FF0DC081E08093EC01C801B70190580F
:1004D0000E94450E80EE91E00E940C0406C010922E
:1004E000EC0180EE91E00E9432048091260290910E
:1004F0002702A0912802B09129028A309105A10516
:10050000B10528F1109226021092270210922802BB
:10051000109229028091EB01813039F0813018F07E
:100520008230A9F406C081E001C082E08093EB0133
:1005300002C01092EB0180EC91E060E041E00E948B
:10054000A40880EC91E061E171E00E9424078091B1
:10055000EB01813009F44BC0813020F0823009F08A
:10056000BAC06DC080EC91E060E041E00E94A40858
:1005700080EC91E065E571E00E9424076091AB0199
:100580007091AC018091AD019091AE010E94400E3E
:10059000AB01BC0180EC91E02AE030E00E94A007B2
:1005A00080EC91E06FED0E94270780EC91E069E517
:1005B00071E00E9424076091E2017091E301809153
:1005C000E4019091E5010E94400EAB01BC0180EC7A
:1005D00091E02AE030E00E94A00780EC91E06FED0E
:1005E0000E94270780EC91E06FE571E072C080EC1B
:1005F00091E060E041E00E94A40880EC91E061E6B7
:1006000071E00E9424078091EA01823071F083300A
:1006100088F4813029F080EC91E06CE671E059C0FB
:1006200080EC91E060E771E054C080EC91E064E719
:1006300071E04FC080EC91E068E771E04AC080EC67
:1006400091E060E041E00E94A4088091EC018130DB
:1006500051F0813018F08230F1F515C080EC91E056
:100660006CE771E036C080EC91E06DE871E00E94CB
:1006700024076091E6017091E7018091E801909173
:10068000E90190580EC080EC91E06AE971E00E94A7
:1006900024076091E6017091E7018091E801909153
:1006A000E90120E030E04FE753E40E94D80D20E05C
:1006B00030E048EC52E40E94270F0E94450E80EC87
:1006C00091E04AE050E00E94980780EC91E068E9F0
:1006D00071E00E9424078091260290912702A09148
:1006E0002802B09129020196A11DB11D8093260216
:1006F00090932702A0932802B09329021F910F9193
:10070000FF90EF90089568EC70E080E090E00E9428
:10071000E2050E942F010895AF92BF92CF92DF921F
:10072000EF92FF920F931F9380EC91E068E049E015
:1007300024E005E056E0E52E37E0C32E0E94900944
:1007400085ED91E061E02FE632E143E85AE30E9453
:10075000970480EE91E06AE04BE00E94EC0300D049
:1007600000D000D080E090E0DC01EDB7FEB78183DF
:100770009283A383B483168215828DEE91E062EE9C
:1007800071E046EE51E02BEA31E00F2EF0E0EF2E63
:10079000F0E0FF2EF0EA0F2FF2E41F2FF02D0F2EC6
:1007A000F0E0AF2EF0E0BF2EF0E0CF2EF0E0DF2E35
:1007B000F02D0E94100D8DB79EB706960FB6F894D7
:1007C0009EBF0FBE8DBF1F910F91FF90EF90DF90E6
:1007D000CF90BF90AF900895CF93DF93EC01862F19
:1007E0006883498360E00E949F06898160E00E94DF
:1007F0009F06888161E00E947B06898161E00E94FA
:100800007B06888160E00E949F06898160E00E94EB
:100810009F06DF91CF9108951F93CF93DF93EC0153
:10082000162F898160E070E00E9406058881612FA3
:1008300070E00E940605DF91CF911F9108951F93EC
:10084000CF93DF93EC01162F888160E070E00E9467
:1008500006058981612F70E00E940605DF91CF9126
:100860001F910895CF93DF93EC01888160E070E0E1
:100870000E940605898160E070E00E940605DF9114
:10088000CF910895AF92BF92CF92DF92EF92FF92F5
:100890000F931F93CF93DF93EC018A01F62EE72E7F
:1008A000AC80BD80CE80DF80C601B50120E030E0A5
:1008B000A9010E94D40D882351F49701802F912F14
:1008C000A32FB22F8C839D83AE83BF8320C097015B
:1008D000602F712F832F922FA60195010E946F0D1B
:1008E000288139814A815B810E94270F9B01AC01DD
:1008F000C601B5010E94700D262F372F482F592FA2
:100900002C833D834E835F838B01F82EE92E970164
:10091000602F712F832F9E2DDF91CF911F910F910B
:10092000FF90EF90DF90CF90BF90AF900895CF935E
:10093000DF93EC01688788E090E00E94E606FC0106
:1009400020E030E040E05FE3208331834283538343
:1009500020E030E0A90124833583468357839A87BA
:100960008987DF91CF910895CF93DF93EC0188853C
:100970000E94E5040984DA85C02D9C01B90188270D
:1009800077FD8095982F0E94730E20E030E040E8BC
:100990005AE30E94270F20E030E040EA50E40E9432
:1009A000270F20E030E040E05FE30E946F0D2AE077
:1009B00037ED43E25CE30E94D80DAB01BC01CE01F0
:1009C0000E944204DF91CF9108958E3008F08E503E
:1009D00087709091AF019295990F990F907C982B09
:1009E00090937C0080917A00806480937A0080915B
:1009F0007A0086FDFCCF2091780030917900932F0A
:100A000080E030E0282B392BC90108951F93CF9344
:100A1000DF93182FEB0161E00E947B06209709F419
:100A20004AC0CF3FD10509F449C0E12FF0E0E255BB
:100A3000FF4FE491E330C1F0E43028F4E13051F0AD
:100A4000E230B1F50CC0E63019F1E73049F1E4309D
:100A500079F514C084B5806884BDC7BD33C084B542
:100A6000806284BDC8BD2EC0809180008068809364
:100A70008000D0938900C093880024C080918000BA
:100A8000806280938000D0938B00C0938A001AC04C
:100A90008091B00080688093B000C093B30012C012
:100AA0008091B00080628093B000C093B4000AC00F
:100AB000C038D1051CF4812F60E002C0812F61E0B5
:100AC0000E949F06DF91CF911F9108951F920F9270
:100AD0000FB60F9211242F933F938F939F93AF9351
:100AE000BF9380912E0290912F02A0913002B0917D
:100AF0003102309132020196A11DB11D232F2D5FCD
:100B00002D3720F02D570196A11DB11D20933202E3
:100B100080932E0290932F02A0933002B093310263
:100B200080912A0290912B02A0912C02B0912D026B
:100B30000196A11DB11D80932A0290932B02A093D0
:100B40002C02B0932D02BF91AF919F918F913F9155
:100B50002F910F900FBE0F901F9018958FB7F8949C
:100B600020912E0230912F0240913002509131029B
:100B70008FBFB901CA0108959FB7F89420912A0246
:100B800030912B0240912C0250912D0286B5A89BEA
:100B900006C08F3F21F02F5F3F4F4F4F5F4F9FBFEA
:100BA000542F432F322F2227280F311D411D511D55
:100BB00082E0220F331F441F551F8A95D1F7B901D8
:100BC000CA010895EF92FF920F931F93CF93DF9383
:100BD0007B018C010E94BC05EB010FC00E94BC058B
:100BE0006C1B7D0B83E0683E780738F00894E108C1
:100BF000F10801091109C851DC4FE114F1040105A4
:100C0000110561F7DF91CF911F910F91FF90EF9048
:100C10000895019739F0880F991F880F991F02973F
:100C20000197F1F70895789484B5826084BD84B506
:100C3000816084BD85B5826085BD85B5816085BDD7
:100C4000EEE6F0E0808181608083E1E8F0E01082F0
:100C5000808182608083808181608083E0E8F0E031
:100C6000808181608083E1EBF0E08081846080831B
:100C7000E0EBF0E0808181608083EAE7F0E0808152
:100C800084608083808182608083808181608083B2
:100C90008081806880831092C1000895833071F054
:100CA000843028F48130A1F0823021F514C08630E0
:100CB000B1F08730D1F08430E9F404C08091800035
:100CC0008F7703C0809180008F7D8093800008958E
:100CD00084B58F7702C084B58F7D84BD08958091DF
:100CE000B0008F778093B00008958091B0008F7D21
:100CF0008093B000089590E0FC01E656FF4F2491E8
:100D0000FC01EA57FF4FE491EE23C1F0F0E0EE0F53
:100D1000FF1FE859FF4F85919491DC01662341F450
:100D20009FB7F8948C91209582238C939FBF089550
:100D30009FB7F8948C91822B8C939FBF08950F934B
:100D40001F93DF93CF930F92CDB7DEB7282F30E0FC
:100D5000F901E255FF4F8491F901E656FF4F1491D6
:100D60002A573F4FF90104910023D9F0882321F03D
:100D700069830E944E066981E02FF0E0EE0FFF1FAD
:100D8000EE58FF4F85919491DC019FB7F89466234C
:100D900021F48C911095812302C08C91812B8C932E
:100DA0009FBF0F90CF91DF911F910F910895CF9327
:100DB000DF930E9413060E948C00C0E0D0E00E94E6
:100DC00083032097E1F30E940000F9CF0E94B20F45
:100DD0000895CF92DF92EF92FF920F931F93CF93DC
:100DE000DF936C017B018A01C0E0D0E00FC0D70126
:100DF0006D917D01D601ED91FC910190F081E02D86
:100E0000C6010995C80FD91F0150104001151105E1
:100E100071F7CE01DF91CF911F910F91FF90EF906D
:100E2000DF90CF900895DB010D900020E9F7AD0130
:100E300041505040461B570BDC01ED91FC91028064
:100E4000F381E02D099508950E9413070895DC01B0
:100E5000ED91FC910190F081E02D099508958F921C
:100E60009F92AF92BF92CF92DF92EF92FF920F9339
:100E70001F93DF93CF93CDB7DEB7A1970FB6F8944A
:100E8000DEBF0FBECDBF6C01042FE52FCB01122FAB
:100E900019A2223008F41AE021E2E22EF12CEC0E25
:100EA000FD1E812E9924AA24BB2403C0022FE32F08
:100EB000CA01602F7E2FA50194010E948A0F129F04
:100EC000802D1124081B0894E108F1080A3010F461
:100ED000005D01C0095CF701008321153105410562
:100EE000510521F7C601B7010E941307A1960FB65D
:100EF000F894DEBF0FBECDBFCF91DF911F910F9150
:100F0000FF90EF90DF90CF90BF90AF909F908F9029
:100F100008952115310549F4DC01ED91FC91019012
:100F2000F081E02D642F099508950E942F07089500
:100F30009A01462F50E060E070E00E948907089512
:100F4000CF92DF92EF92FF920F931F93CF93DF9395
:100F5000EC017A018B012115310541F4E881F98119
:100F60000190F081E02D642F09951AC02A303105D7
:100F7000A9F477FF12C06DE20E9427076C01442795
:100F80005527BA014E195F09600B710BCE012AE09B
:100F90000E942F07C80ED91E04C02AE00E942F0706
:100FA0006C01C601DF91CF911F910F91FF90EF90DF
:100FB000DF90CF900895CF93DF93EC018E8160E0B6
:100FC0000E949F0681E090E00E9409068E8161E008
:100FD0000E949F0681E090E00E9409068E8160E0F9
:100FE0000E949F0684E690E00E940906DF91CF915F
:100FF0000895AF92BF92CF92DF92EF92FF920F933C
:101000001F93CF93DF937C018C01095F1F4FC0E0DA
:10101000D0E0A62EBB246801F80181918F0161E028
:101020000E947B06B5010C2E02C0759567950A9447
:10103000E2F76170F60180810E949F062196C4301C
:10104000D10549F7C7010E94DB07DF91CF911F91BE
:101050000F91FF90EF90DF90CF90BF90AF900895E9
:10106000AF92BF92CF92DF92EF92FF920F931F93B6
:10107000CF93DF937C018C01095F1F4FC0E0D0E06C
:10108000A62EBB246801F80181918F0161E00E94C6
:101090007B06B5010C2E02C0759567950A94E2F7A0
:1010A0006170F60180810E949F062196C830D105AB
:1010B00049F7C7010E94DB07DF91CF911F910F9184
:1010C000FF90EF90DF90CF90BF90AF9008951F9367
:1010D000CF93DF93EC01162F8C81642F0E949F0623
:1010E0008D818F3F19F060E00E949F068F8584FFFD
:1010F00005C0CE01612F0E9430080FC0212F30E0C3
:1011000084E0359527958A95E1F7CE01622F0E94FC
:10111000F907CE01612F0E94F907DF91CF911F914E
:10112000089541E00E94670881E090E0089540E062
:101130000E9467080895FC016089262F2460208B97
:101140006C600E9497080895DF93CF93CDB7DEB708
:1011500028970FB6F894DEBF0FBECDBFFE013196C3
:10116000A8EBB1E028E00D9001922150E1F7FC01DD
:101170002389421710F0422F4150E42FF0E0EE0F88
:10118000FF1FEC0FFD1F2181260F2068622F0E9498
:10119000970828960FB6F894DEBF0FBECDBFCF914B
:1011A000DF91089561E00E94970880ED97E00E942A
:1011B00009060895CF93DF93EC01423018F08F8534
:1011C00088608F874B8B1C8A222329F0413019F4C9
:1011D0008F8584608F8780E593EC0E9409068C815F
:1011E00060E00E949F068E8160E00E949F068D81D4
:1011F0008F3F19F060E00E949F066F8564FD1DC05F
:10120000CE0163E00E94F90784E991E10E9409069A
:10121000CE0163E00E94F90784E991E10E9409068A
:10122000CE0163E00E94F90786E990E00E9409067A
:10123000CE0162E00E94F90716C06062CE010E94F2
:10124000970884E991E10E9409066F856062CE01EA
:101250000E94970886E990E00E9409066F85606207
:10126000CE010E9497086F856062CE010E949708A8
:1012700084E0888BCE010E949B08CE010E94D20898
:1012800082E0898BCE0166E00E949708DF91CF91C2
:1012900008956F927F928F92AF92CF92EF920F93B9
:1012A0001F93DF93CF93CDB7DEB73C01162F842F6A
:1012B000F301448325830683E782C086A186828664
:1012C0009D8593879E8594879F8595879889968726
:1012D00061E00E947B06F30185818F3F19F061E098
:1012E0000E947B06F301868161E00E947B06112348
:1012F00019F0F301178603C080E1F3018787C3016A
:1013000060E141E020E00E94DA08CF91DF911F9177
:101310000F91EF90CF90AF908F907F906F90089546
:101320008F92AF92CF92EF920F93CF93DF93A62F2E
:10133000742F522F302FAE2C8C2CEC011B821A8272
:10134000E4EBF1E0F983E88300D000D0EDB7FEB71D
:101350003196CDB7DEB7198211821282138261E015
:101360004A2F2FEF072FE52EC32E0E9449090F9019
:101370000F900F900F90DF91CF910F91EF90CF9042
:10138000AF908F9008952F923F924F925F926F92FD
:101390007F928F929F92AF92BF92CF92DF92EF9205
:1013A000FF920F931F93DF93CF93CDB7DEB72A97AA
:1013B0000FB6F894DEBF0FBECDBF9A878987DC01D8
:1013C000D8968C91D897882309F425C10E94AE0540
:1013D0006D837E838F839887E985FA8580A191A1AB
:1013E000A2A1B3A12D813E814F815885281B390BC5
:1013F0004A0B5B0B84A595A5A6A5B7A528173907A9
:101400004A075B0708F407C1228D338DD9018D91FE
:101410009D910D90BC91A02D89839A83AB83BC8351
:10142000068CF78DE02D6081718182819381298105
:101430003A814B815C810E946F0D562E472E382ECB
:10144000292EA2019101652F742F832F922FE985F8
:10145000FA8520893189428953890E94270FA985FD
:10146000BA8594962D913D914D915C9197970E94EC
:10147000700DD62EC72EB82EA92EA6019501852F48
:10148000942FA32FB22FE985FA8584A395A3A6A351
:10149000B7A304A915A9F6A8E7A8652F742F832F71
:1014A000922FF701202F312F4F2F5E2F0E94230FF5
:1014B000181664F49701802F912FA32FB22FE9857E
:1014C000FA8584A395A3A6A3B7A31AC0A985BA8554
:1014D000D0966D907D908D909C90D397A6019501AC
:1014E000652F742F832F922FA40193010E94D40D96
:1014F00087FF06C0E985FA8564A275A286A297A235
:10150000A2019101652F742D832F922DA985BA8593
:101510001C962D913D914D915C911F970E94270F34
:10152000E985FA8524A135A146A157A10E94700D35
:101530005B016C0169817A818B819C81A985BA8567
:1015400098962D913D914D915C919B970E946F0DC6
:10155000E985FA8524893589468957890E94270FAC
:101560009B01AC01C601B5010E946F0DD62EC72E9E
:10157000B82EA92EA6019501652F742F832F922FC7
:10158000F701202F312F4F2F5E2D0E94230F1816A9
:10159000FCF0A985BA85D0960C91D097D1961C9174
:1015A000D197D296FC90D297D396EC90A601950154
:1015B000652F742F832F922FF701202F312F4F2F5C
:1015C0005E2F0E94D40D87FD03C00D2D1C2D7501CB
:1015D000A985BA855C96ED91FC915D979701802F66
:1015E000912FA32FBE2D80839183A283B383898102
:1015F0009A81AB81BC81E985FA8580A791A7A2A7D2
:10160000B3A78D819E81AF81B88580A391A3A2A34A
:10161000B3A381E001C080E02A960FB6F894DEBF44
:101620000FBECDBFCF91DF911F910F91FF90EF9033
:10163000DF90CF90BF90AF909F908F907F906F90F2
:101640005F904F903F902F9008952F923F924F922E
:101650005F926F927F928F929F92AF92BF92CF9242
:10166000DF92EF92FF920F931F93DF93CF9300D0FF
:101670000F92CDB7DEB79B838A832A013B014801D5
:101680005901CB01BA0120E030E0A9010E94D40D3C
:1016900087FD9CC0C501B40120E030E0A9010E9493
:1016A000D40D87FD93C0C701B60120E030E0A90149
:1016B0000E94D40D87FD8AC0EA81FB81408251825D
:1016C0006282738284829582A682B782C086D18626
:1016D000E286F38664A575A586A597A50E94710E7E
:1016E00020E030E04AE754E40E94D80D162F072F7F
:1016F000382E292EEA81FB814486558666867786B8
:10170000C501B401D801F1012B2F3A2F4F2F5E2FC5
:101710000E94270FB62EA72E982E9983A501292F58
:10172000852F942FA92DB22FEA81FB81808B918B7D
:10173000A28BB38BC701B601D801F1012B2F3A2F31
:101740004F2F5E2F0E94D80DC62E872E182F092FDF
:101750009801862F982DA32FB22FEA81FB81848BCD
:10176000958BA68BB78B808D918D8130910571F50E
:1017700060E070E0CB01A30192010E946F0DEA814D
:10178000FB81648775878687978760E070E0CB016F
:10179000D50139802B2F3A2F492D532D0E946F0DE3
:1017A000EA81FB81608B718B828B938B60E070E0B0
:1017B000CB01F8012C2D382D4F2F5E2F0E946F0D7D
:1017C000EA81FB81648B758B868B978B0F900F90D2
:1017D0000F90CF91DF911F910F91FF90EF90DF90CD
:1017E000CF90BF90AF909F908F907F906F905F90C1
:1017F0004F903F902F9008954F925F926F927F92FB
:101800008F929F92AF92BF92CF92DF92EF92FF9210
:101810000F931F93CF93DF93EC015A016B01780173
:101820008901CB01BA01A80197010E94230F87FF0C
:101830004EC0A8AAB9AACAAADBAAECAAFDAA0EABF6
:101840001FAB88AD882309F442C08C8C9D8CF401B9
:101850004080518062807380C301B201A80197016A
:101860000E94230F181634F4F401E082F1820283FF
:1018700013830DC0C301B201A60195010E94D40DCE
:1018800087FF05C0F401A082B182C282D382ACA0DE
:10189000BDA0CEA0DFA0ECA8FDA80EA91FA9C6017F
:1018A000B501A80197010E94230F181664F0E8A85B
:1018B000F9A80AA91BA9C601B501A80197010E94B0
:1018C000D40D87FF04C0ECA2FDA20EA31FA3DF91DD
:1018D000CF911F910F91FF90EF90DF90CF90BF902D
:1018E000AF909F908F907F906F905F904F900895F2
:1018F000AF92BF92CF92DF92EF92FF920F931F931E
:10190000CF93DF93EC01EC8DFD8DE080F1800281BF
:101910001381ECA2FDA20EA31FA3EA8DFB8D808193
:101920009181A281B38188A799A7AAA7BBA7ACA8D8
:10193000BDA8CEA8DFA8C801B701A60195010E94E5
:10194000230F181664F0A8A8B9A8CAA8DBA8C80174
:10195000B701A60195010E94D40D87FF04C0ACA277
:10196000BDA2CEA2DFA2DF91CF911F910F91FF9078
:10197000EF90DF90CF90BF90AF9008951F93CF93DB
:10198000DF93EC0111E06130710509F010E088ADE2
:1019900091E08927181719F4CE010E94780C18AF2E
:1019A000DF91CF911F9108950F931F93CF93DF93F2
:1019B000EC018B0188AD882361F1888D998D6817C2
:1019C000790739F160E070E0CB012C853D854E85CB
:1019D0005F850E946F0D6C877D878E879F8760E093
:1019E00070E0CB01288939894A895B890E946F0D93
:1019F000688B798B8A8B9B8B60E070E0CB012C89A4
:101A00003D894E895F890E946F0D6C8B7D8B8E8B1B
:101A10009F8B198F088FDF91CF911F910F910895A0
:101A20004F925F926F927F928F929F92AF92BF92EE
:101A3000CF92DF92EF92FF920F931F93DF93CF939A
:101A4000CDB7DEB74C0127013801FC01558F448F1B
:101A5000738F628F378F268F10AE40E050E0BA014F
:101A600000E010E02FE733E40E94FC0B84E690E0F6
:101A7000A0E0B0E0F40184A795A7A6A7B7A7C4018A
:101A80006F89788D0E94D40CC401B301A201960124
:101A90008501CB88DC88ED88FE880E94250B0E949A
:101AA000AE05F40124A535A546A557A5621B730B09
:101AB000840B950B60A371A382A393A3CF91DF91B5
:101AC0001F910F91FF90EF90DF90CF90BF90AF905C
:101AD0009F908F907F906F905F904F900895505897
:101AE000BB27AA270ED075C166D130F06BD120F08C
:101AF00031F49F3F11F41EF45BC10EF4E095E7FB57
:101B000051C1E92F77D180F3BA17620773078407B1
:101B1000950718F071F49EF58FC10EF4E0950B2E29
:101B2000BA2FA02D0B01B90190010C01CA01A0012F
:101B30001124FF27591B99F0593F50F4503E68F18A
:101B40001A16F040A22F232F342F4427585FF3CFCB
:101B5000469537952795A795F0405395C9F77EF49C
:101B60001F16BA0B620B730B840BBAF09150A1F0E5
:101B7000FF0FBB1F661F771F881FC2F70EC0BA0F6B
:101B8000621F731F841F48F4879577956795B795F3
:101B9000F7959E3F08F0B3CF9395880F08F09927EB
:101BA000EE0F979587950895D9D008F481E00895B0
:101BB0000CD00FC107D140F0FED030F021F45F3FD0
:101BC00019F0F0C0511139C1F3C014D198F3992321
:101BD000C9F35523B1F3951B550BBB27AA276217F1
:101BE0007307840738F09F5F5F4F220F331F441F36
:101BF000AA1FA9F333D00E2E3AF0E0E830D091506E
:101C00005040E695001CCAF729D0FE2F27D0660F5A
:101C1000771F881FBB1F261737074807AB07B0E899
:101C200009F0BB0B802DBF01FF2793585F4F2AF0AF
:101C30009E3F510568F0B6C000C15F3FECF3983E8F
:101C4000DCF3869577956795B795F7959F5FC9F70C
:101C5000880F911D9695879597F90895E1E0660F95
:101C6000771F881FBB1F621773078407BA0720F00E
:101C7000621B730B840BBA0BEE1F88F7E095089577
:101C800004D06894B111D9C00895BCD088F09F5792
:101C900090F0B92F9927B751A0F0D1F0660F771FB8
:101CA000881F991F1AF0BA95C9F712C0B13081F098
:101CB000C3D0B1E00895C0C0672F782F8827B85FE0
:101CC00039F0B93FCCF3869577956795B395D9F7F9
:101CD0003EF490958095709561957F4F8F4F9F4F03
:101CE0000895E89409C097FB3EF49095809570950F
:101CF00061957F4F8F4F9F4F9923A9F0F92F96E958
:101D0000BB279395F695879577956795B795F111CC
:101D1000F8CFFAF4BB0F11F460FF1BC06F5F7F4F69
:101D20008F4F9F4F16C0882311F096E911C077237B
:101D300021F09EE8872F762F05C0662371F096E884
:101D4000862F70E060E02AF09A95660F771F881F53
:101D5000DAF7880F9695879597F90895990F0008F7
:101D6000550FAA0BE0E8FEEF16161706E807F9076D
:101D7000C0F012161306E407F50798F0621B730B08
:101D8000840B950B39F40A2661F0232B242B252B89
:101D900021F408950A2609F4A140A6958FEF811D2C
:101DA000811D089597F99F6780E870E060E00895CD
:101DB0009FEF80EC089500240A9416161706180663
:101DC0000906089500240A9412161306140605063F
:101DD0000895092E0394000C11F4882352F0BB0FD0
:101DE00040F4BF2B11F460FF04C06F5F7F4F8F4F33
:101DF0009F4F089557FD9058440F551F59F05F3F6E
:101E000071F04795880F97FB991F61F09F3F79F01C
:101E100087950895121613061406551FF2CF46959E
:101E2000F1DF08C0161617061806991FF1CF869520
:101E30007105610508940895E894BB276627772704
:101E4000CB0197F908958ADF08F48FEF08950BD03E
:101E5000C0CFB1DF28F0B6DF18F0952309F0A2CF8C
:101E6000A7CF1124EACFC6DFA0F3959FD1F3950F3A
:101E700050E0551F629FF001729FBB27F00DB11D0E
:101E8000639FAA27F00DB11DAA1F649F6627B00D9E
:101E9000A11D661F829F2227B00DA11D621F739F87
:101EA000B00DA11D621F839FA00D611D221F749F95
:101EB0003327A00D611D231F849F600D211D822FDC
:101EC000762F6A2F11249F5750408AF0E1F0882323
:101ED0004AF0EE0FFF1FBB1F661F771F881F915030
:101EE0005040A9F79E3F510570F05CCFA6CF5F3FF1
:101EF000ECF3983EDCF3869577956795B795F79563
:101F0000E7959F5FC1F7FE2B880F911D96958795EA
:101F100097F90895A1E21A2EAA1BBB1BFD010DC063
:101F2000AA1FBB1FEE1FFF1FA217B307E407F50789
:101F300020F0A21BB30BE40BF50B661F771F881F65
:101F4000991F1A9469F760957095809590959B01FB
:101F5000AC01BD01CF010895EE0FFF1F0590F49174
:101F6000E02D0994CF93DF938230910510F482E045
:101F700090E0E0913502F091360240E050E020E040
:101F800030E026C06081718168177907E0F068173A
:101F9000790781F4828193812115310531F0D901CE
:101FA00013969C938E9312972BC090933602809336
:101FB000350226C04115510519F06417750718F44C
:101FC000AB01E901DF019F0172816381E72FF62FE9
:101FD0003097C1F64115510501F1481B590B4430AA
:101FE000510580F412968D919C911397209719F0CA
:101FF0009B838A8304C09093360280933502FD014F
:10200000329646C0FD01E40FF51F81939193425033
:10201000504011965C934E933BC020913302309117
:1020200034022115310541F42091A7013091A80116
:1020300030933402209333022091A9013091AA01F8
:102040002115310541F42DB73EB74091A5015091BE
:10205000A601241B350BE0913302F0913402E21704
:10206000F307A0F42E1B3F0B2817390778F0AC01BB
:102070004E5F5F4F2417350748F04E0F5F1F509398
:102080003402409333028193919302C0E0E0F0E088
:10209000CF01DF91CF910895CF93DF93009709F49B
:1020A00091C0FC01329713821282609135027091C7
:1020B00036026115710581F420813181280F391FA5
:1020C00080913302909134028217930799F5F0932F
:1020D0003402E093330276C0DB0180E090E002C07E
:1020E000CD01D901AE17BF0748F412962D913C914E
:1020F000139721153105A1F7CD0121C0B383A28328
:10210000EF01499159919E01240F351FA217B30782
:1021100079F42D913C911197240F351F2E5F3F4F7D
:102120003183208312962D913C9113973383228320
:10213000009729F4F0933602E093350243C0DC01A6
:102140001396FC93EE9312974D915D91A40FB51FDA
:10215000EA17FB0769F420813181240F351F2E5FB8
:102160003F4FEC0139832883228133813B832A83CB
:10217000E0E0F0E002C0FB01BC01DB0112968D91B2
:102180009C9113970097B9F79B012E5F3F4F8D915C
:102190009C911197820F931F40913302509134020A
:1021A0004817590779F4309729F4109236021092A3
:1021B000350202C013821282225030403093340222
:0E21C00020933302DF91CF910895F894FFCF62
:1021CE0020694E7572736572792076312E3020201B
:1021DE000020202020202020202020202020202011
:1021EE0020004D4552525920584D41532032303126
:1021FE0033200020202020205255544849452020CD
:10220E0020202000202020204C4F56452047454FAF
:10221E00202020200053543D00432041543D0043D4
:10222E000020204C69676874733A2000302F330009
:10223E00312F3300322F3300332F33002020205024
:10224E006F776572204F6666202020200020204385
:10225E006F6F6C696E6720002500202048656174E1
:10226E00696E6720002000370200000000E0410187
:10227E00000000009108E906000040001400540020
:00000001FF
